:020000040800F2
:100000001007002029020008951900085D18000853
:100010009119000821040008611C0008000000007C
:10002000000000000000000000000000091A0008A5
:100030002504000800000000051A0008611A0008E5
:10004000430200084302000843020008430200087C
:10005000430200084302000843020008430200086C
:10006000430200084302000843020008430200085C
:10007000430200084302000843020008430200084C
:10008000430200084302000843020008430200083C
:10009000430200084302000843020008430200082C
:1000A000430200084302000843020008430200081C
:1000B000430200084302000843020008430200080C
:1000C00043020008430200084302000843020008FC
:1000D00043020008430200084302000843020008EC
:1000E00043020008430200084302000843020008DC
:1000F00043020008430200084302000843020008CC
:1001000043020008430200084302000843020008BB
:1001100043020008430200084302000843020008AB
:10012000430200084302000843020008430200089B
:10013000430200084302000843020008430200088B
:10014000430200084302000843020008430200087B
:10015000430200084302000843020008430200086B
:10016000430200084302000843020008430200085B
:100170004302000843020008430200080000000098
:10018000430200084302000800F002F800F03CF8C7
:100190000AA090E8000C82448344AAF10107DA45E2
:1001A00001D100F031F8AFF2090EBAE80F0013F0F8
:1001B000010F18BFFB1A43F0010318479C1B0000F6
:1001C000BC1B0000103A24BF78C878C1FAD8520787
:1001D00024BF30C830C144BF04680C6070470000C1
:1001E0000023002400250026103A28BF78C1FBD840
:1001F000520728BF30C148BF0B6070471FB501F0E0
:1002000092FD1FBD10B510BD00F0D0F81146FFF7EC
:10021000F5FF01F06FFD00F0EEF803B4FFF7F2FF19
:1002200003BC00F0F5F80000094880470948004782
:10023000FEE7FEE7FEE7FEE7FEE7FEE7FEE7FEE796
:10024000FEE7FEE704480549054A064B70470000F3
:10025000111B000889010008100100201007002070
:10026000100300201003002053EA020C00F0698004
:100270002DE9F04B4FF00006002B1FBFB3FA83F5BA
:1002800003FA05F424FA05F65E4012BF1643B2FAEB
:1002900082F502FA05F4C5F120051EBF22FA05FC1D
:1002A00044EA0C04203556EA044C4FEA144418BFC3
:1002B000641C4FF000084FF00009904271EB030CF2
:1002C00039D3002919BFB1FA81F701FA07F6B0FA5C
:1002D00080F700FA07F6C7F120071EBF20FA07FCD7
:1002E00046EA0C062037B6FBF4FCA7EB0507103FE7
:1002F00007F01F0BCBF120062CFA06F60CFA0BFBCD
:1003000044BFB3460026202FA4BF5E464FF0000B2B
:100310005BEA060C08BF4FF0010B19EB0B0948EB29
:100320000608ABFB027C06FB02CC0BFB03CCC01B1C
:1003300071EB0C01C1E70B46024641464846BDE859
:10034000F08B13B5084318BF4FF0FF300146AFF3F1
:100350000080BDE81C4070474FF0000200B5134616
:1003600094469646203922BFA0E80C50A0E80C50D5
:10037000B1F12001BFF4F7AF090728BFA0E80C5086
:1003800048BF0CC05DF804EB890028BF40F8042B7F
:1003900008BF704748BF20F8022B11F0804F18BFEC
:1003A00000F8012B7047704770477047754600F0A2
:1003B0002BF8AE4605006946534620F007008546F7
:1003C00018B020B5FFF73EFFBDE820404FF0000613
:1003D0004FF000074FF000084FF0000BAC46ACE8C0
:1003E000C009ACE8C009ACE8C009ACE8C00921F01C
:1003F00007018D46704710B50446AFF300802046D4
:10040000BDE81040FFF709BF00487047100000200A
:1004100001491820ABBEFEE726000200704700002D
:10042000FFE7FEE77047000081B0EFF3108072B67F
:100430000090FFE7FEE700008EB00D900C910020C9
:100440000A90099008900B90FFE70B980F2800F294
:10045000CC81FFE70B99012088400A900C98006836
:100460000A990840099009980A99884240F0B88191
:10047000FFE70C98406800F00300012807D0FFE771
:100480000C98406800F0030002282FD1FFE70D9878
:10049000806808900B984100032000FA01F1089849
:1004A000884308900C98C0680B99490000FA01F144
:1004B00008980843089008980D9988600D9840683E
:1004C00008900B99012000FA01F1089888430890E0
:1004D0000C984068C0F300100B9900FA01F10898DD
:1004E0000843089008980D994860FFE70C98406809
:1004F00000F00300032818D0FFE70D98C0680890AB
:100500000B984100032000FA01F1089888430890F5
:100510000C9880680B99490000FA01F1089808438B
:10052000089008980D99C860FFE70C98406800F0A3
:100530000300022826D1FFE70D980B996FF0030204
:1005400002EA51010844006A08900B9800F0070085
:1005500081000F2000FA01F10898884308900C9858
:1005600000690B9901F00701890000FA01F1089870
:100570000843089008980D990B9B02EA5302114416
:100580000862FFE70D98006808900B98410003206F
:1005900000FA01F10898884308900C98406800F030
:1005A00003000B99490000FA01F1089808430890EC
:1005B00008980D9908600C9880798007002800F051
:1005C0000E81FFE7FFE70020079043F64400C4F2E6
:1005D0000200016841F480410160006800F480403D
:1005E00007900798FFE70B9820F0030043F60801F7
:1005F000C4F20101405808900B9800F003008100FC
:100600000F2000FA01F10898884308900D98002106
:10061000C4F20201884203D1FFE7002006905EE0A9
:100620000D9840F20041C4F20201884203D1FFE775
:100630000120059050E00D9840F60001C4F202013F
:10064000884203D1FFE70220049042E00D9840F673
:100650000041C4F20201884203D1FFE70320039066
:1006600034E00D9841F20001C4F20201884203D146
:10067000FFE70420029026E00D9841F20041C4F209
:100680000201884203D1FFE70520019018E00D9890
:1006900041F60001C4F20201884203D1FFE70620BF
:1006A00000900AE00D9941F60042C4F202020820CF
:1006B000914208BF07200090FFE700980190FFE7F4
:1006C00001980290FFE702980390FFE703980490D7
:1006D000FFE704980590FFE705980690FFE7069866
:1006E000C0B20B9901F00301890000FA01F10898EA
:1006F0000843089008980B9921F0030143F608027B
:10070000C4F20102885043F60840C4F201000068B8
:10071000089009990898884308900C988079C00639
:10072000002805D5FFE70999089808430890FFE7D6
:10073000089843F60841C4F20101086043F60C40F2
:10074000C4F201000068089009990898884308904D
:100750000C9880798006002805D5FFE7099908984C
:1007600008430890FFE7089843F60C41C4F20101E2
:10077000086043F60440C4F201000068089009993B
:100780000898884308900C9880798007002805D540
:10079000FFE70999089808430890FFE7089843F68F
:1007A0000441C4F20101086043F60040C4F20100B4
:1007B0000068089009990898884308900C988079F7
:1007C000C00728B1FFE70999089808430890FFE798
:1007D000089843F60041C4F201010860FFE7FFE713
:1007E000FFE70B9801300B902FE60EB0704700002A
:1007F00082B00190ADF802108DF801209DF8010043
:1008000028B1FFE7BDF802000199886105E0BDF855
:100810000200000401998861FFE702B07047000000
:1008200040F20810C2F200000068704780B58EB038
:100830000C900C9820B9FFE701208DF8370043E1B8
:100840000C9890F83D0040B9FFE70C99002081F822
:100850003C000C9800F03CF9FFE70C99242081F84B
:100860003D000C980168086820F0010008600C98B1
:100870000168086840F4004008600C980168086846
:1008800020F40040086000F053FB0A900C98406888
:1008900048F2A061C0F2010188420BD8FFE70A9933
:1008A00048F28042C0F21E020020914238BF01206F
:1008B00009900AE00A9940F60012C0F23D020020B9
:1008C000914238BF01200990FFE70998012804D11F
:1008D000FFE701208DF83700F6E00A984DF68361B6
:1008E000C4F21B31A0FB0110800C0B900C98006827
:1008F000406820F03F000B9908430C990968486054
:100900000C980068006A20F03F0008900C9840683E
:1009100048F2A061C0F20101884204D8FFE70B98B9
:10092000013007900EE00B984FF49671484344F65F
:10093000D351C1F26201A0FB0101012000EB911033
:100940000790FFE70898079908430C99096808621F
:100950000C980068C0694CF6FF71884306900C98AB
:10096000406848F2A061C0F2010188421FD8FFE749
:100970000A9801380C9949684900B0FBF1F0013040
:100980006FF31F30032803D8FFE7042005900BE026
:100990000A9801380C9949684900B0FBF1F0013020
:1009A0006FF31F300590FFE7059804904CE00C981A
:1009B000806868B9FFE70A9801380C99496801EB2B
:1009C0004101B0FBF1F001306FF31F3003900DE0F7
:1009D0000A9801380C99496819225143B0FBF1F08B
:1009E0000130042161F31F300390FFE703980005F5
:1009F00018B9FFE70120029023E00C98806868B9DD
:100A0000FFE70A9801380C99496801EB4101B0FBF6
:100A1000F1F001306FF31F3001900DE00A980138BA
:100A20000C99496819225143B0FBF1F001300421BF
:100A300061F31F300190FFE7019840F400400290FD
:100A4000FFE702980490FFE70698049908430C9981
:100A50000968C8610C980068006820F0C0000C9B11
:100A60001968DA691B6A1A43104308600C98006819
:100A7000806848F2FF3188430C9A1168D368126984
:100A80001A43104388600C980068C06820F0FF008B
:100A90000C9B19685A699B691A431043C8600C98EB
:100AA0000168086840F0010008600C9900200864A3
:100AB0000C9A202182F83D100C9908630C9981F85A
:100AC0003E008DF83700FFE79DF837000EB080BD7F
:100AD00080B588B0079000200690059004900390A0
:100AE00002900798006845F20041C4F20001884274
:100AF00034D1FFE7FFE70020019043F63000C4F255
:100B00000200016841F002010160006800F002008B
:100B100001900198FFE7C02002901220039000206E
:100B20000490032005900420069040F20040C4F297
:100B3000020002A9FFF780FCFFE70020009043F6C7
:100B40004000C4F20200016841F400110160006835
:100B500000F4001000900098FFE7FFE708B080BDA8
:100B600040F20400C2F20000027840F20811C2F222
:100B700000010868104408607047000080B582B02A
:100B800043F60041C4F20201086840F400700860B6
:100B9000086840F480600860086840F4807008606D
:100BA000032000F085F80020019000F005F800F027
:100BB0003BF8019802B080BD80B582B0009040F251
:100BC0000000C2F20000006840F20401C2F200011D
:100BD0000A784FF47A71B1FBF2F1B0FBF1F000F05A
:100BE0009FFD20B1FFE701208DF8070018E0009875
:100BF0000F280DD8FFE700994FF0FF30002200F0DA
:100C00003DF8009840F20801C2F20001086003E0DC
:100C100001208DF8070003E000208DF80700FFE7B2
:100C20009DF8070002B080BD80B582B0FFE70020CC
:100C3000019043F64400C4F20200016841F480418F
:100C40000160006800F4804001900198FFE7FFE731
:100C50000020009043F64000C4F20200016841F019
:100C600080510160006800F0805000900098FFE71C
:100C7000072000F01DF802B080BD000080B586B0EE
:100C80008DF81700049103920020029000F0EAFF13
:100C900002909DF91700019002980499039A00F0C0
:100CA0007BFE0146019800F0E5FF06B080BD000024
:100CB00080B582B00190019800F0FEFF02B080BDC7
:100CC00080B584B002900191029820B9FFE701201D
:100CD0008DF80F0021E1019843F60041C4F20201B2
:100CE000096801F00701884212D9FFE7019943F62C
:100CF0000040C4F202000170006800F00700019992
:100D0000884204D0FFE701208DF80F0005E1FFE7DE
:100D100002980078800700282AD5FFE7029800781B
:100D20004007002809D5FFE743F60801C4F2020195
:100D3000086840F4E0500860FFE702980078000778
:100D4000002809D5FFE743F60801C4F2020108684C
:100D500040F460400860FFE743F60801C4F2020176
:100D6000086820F0F000029A926810430860FFE7DC
:100D700002980078C00700286ED0FFE7029840680C
:100D8000012811D1FFE743F60000C4F20200006819
:100D900000F400310020B0EB514F04D1FFE70120F7
:100DA0008DF80F00B9E02CE002984068022805D0C9
:100DB000FFE702984068032811D1FFE743F60000DF
:100DC000C4F20200006800F000710020B0EB516F27
:100DD00004D1FFE701208DF80F009EE010E043F6FC
:100DE0000000C4F20200006800F002010020B0EB35
:100DF000510F04D1FFE701208DF80F008DE0FFE7D0
:100E0000FFE743F60801C4F20201086820F003007E
:100E1000029A526810430860FFF702FD0090FFE756
:100E200043F60800C4F20200006800F00C000299CA
:100E30004968B0EB810F0ED0FFE7FFF7F1FC009996
:100E4000401A41F28931884204D3FFE703208DF82C
:100E50000F0062E0E4E7FFE7019843F60041C4F2C7
:100E60000201096801F00701884212D2FFE70199E7
:100E700043F60040C4F202000170006800F0070071
:100E80000199884204D0FFE701208DF80F0044E06B
:100E9000FFE702980078400700280CD5FFE743F6EB
:100EA0000801C4F20201086820F4E050029AD268F6
:100EB00010430860FFE702980078000700280DD56E
:100EC000FFE743F60801C4F20201086820F460401D
:100ED000029A126940EAC2000860FFE700F04CF88D
:100EE00043F60801C4F202010968C9B20A0941F6D1
:100EF0004051C0F60001895CC84040F20001C2F2D6
:100F00000001086040F20800C2F200000068FFF72C
:100F100053FE00208DF80F00FFE79DF80F0004B08E
:100F200080BD000040F20000C2F20000006870477F
:100F300080B5FFF7F7FF43F60801C4F20201096824
:100F4000C1F3822241F65051C0F60001895CC840CD
:100F500080BD000080B5FFF7E5FF43F60801C4F24D
:100F60000201096889B24A0B41F65051C0F60001EE
:100F7000895CC84080BD000080B586B00020059027
:100F800004900390029043F60800C4F20200006847
:100F900000F00C000146019140B1FFE701980428E0
:100FA0000AD0FFE7019808280CD04FE042F2004039
:100FB000C0F2F40002904FE041F20020C0F27A004B
:100FC000029049E043F60400C4F20200016801F017
:100FD0003F01059100684002002813D5FFE743F662
:100FE0000400C4F202000068C0F3881041F200213E
:100FF000C0F27A01A0FB0101059A0023FFF734F942
:10100000049012E043F60400C4F202000068C0F34A
:10101000881042F20041C0F2F401A0FB0101059AE0
:101020000023FFF721F90490FFE743F60400C4F220
:101030000200006800F44031022000EBD130039040
:1010400004980399B0FBF1F0029005E042F20040F1
:10105000C0F2F4000290FFE7029806B080BD0000E5
:1010600080B586B00490049820B9FFE701208DF880
:10107000170050E304980078C007002800F0A5800E
:10108000FFE743F60800C4F20200006800F00C001D
:10109000042813D0FFE743F60800C4F202000068FA
:1010A00000F00C0008281ED1FFE743F60400C4F24C
:1010B000020000684002002815D5FFE743F6000053
:1010C000C4F20200006800F400310020B0EB514F80
:1010D00008D0FFE70498406820B9FFE701208DF8A9
:1010E000170018E370E0FFE704984068B0F5803F10
:1010F00009D1FFE743F60001C4F20201086840F499
:101100008030086020E004984068B0F5A02F0DD131
:10111000FFE743F60001C4F20201086840F48020B2
:101120000860086840F4803008600CE043F6000175
:10113000C4F20201086820F480300860086820F4D6
:1011400080200860FFE7FFE7FFE704984068E8B108
:10115000FFE7FFF765FB0390FFE743F60000C4F2EB
:101160000200006800F400310020B0EB514F0CD1B8
:10117000FFE7FFF755FB0399401A652804D3FFE703
:1011800003208DF81700C6E2E7E71CE0FFF748FBF5
:101190000390FFE743F60000C4F20200006800F489
:1011A00000310020B0EB514F0CD0FFE7FFF738FBC8
:1011B0000399401A652804D3FFE703208DF8170030
:1011C000A9E2E7E7FFE7FFE7FFE704980078800779
:1011D000002840F19680FFE743F60800C4F20200C1
:1011E000006810F00C0F13D0FFE743F60800C4F2BC
:1011F0000200006800F00C0008282CD1FFE743F63D
:101200000400C4F2020000684002002823D4FFE773
:1012100043F60000C4F20200006800F00201002062
:10122000B0EB510F09D0FFE70498C068012804D043
:10123000FFE701208DF817006DE243F60001C4F2CC
:101240000201086820F0F800049A126940EAC2001E
:101250000860FFE754E00498C06870B3FFE700211E
:10126000C4F2472101200860FFF7DAFA0390FFE794
:1012700043F60000C4F20200006800F00201002002
:10128000B0EB510F0CD1FFE7FFF7CAFA0399401AF0
:10129000032804D3FFE703208DF817003BE2E7E7BC
:1012A00043F60001C4F20201086820F0F800049A35
:1012B000126940EAC200086021E00021C4F247211F
:1012C00000200860FFF7ACFA0390FFE743F6000048
:1012D000C4F20200006800F002010020B0EB510FE0
:1012E0000CD0FFE7FFF79CFA0399401A032804D3B8
:1012F000FFE703208DF817000DE2E7E7FFE7FFE7C0
:10130000FFE704980078000700284BD5FFE7049812
:10131000406918B3FFE740F68061C4F2472101201D
:101320000860FFF77DFA0390FFE743F67400C4F20C
:101330000200006800F002010020B0EB510F0CD158
:10134000FFE7FFF76DFA0399401A032804D3FFE77C
:1013500003208DF81700DEE1E7E722E040F6806128
:10136000C4F2472100200860FFF75AFA0390FFE714
:1013700043F67400C4F20200006800F0020100208D
:10138000B0EB510F0CD0FFE7FFF74AFA0399401A70
:10139000032804D3FFE703208DF81700BBE1E7E73C
:1013A000FFE7FFE7049800784007002840F1CE806F
:1013B000FFE700208DF8070043F64000C4F202006A
:1013C0000068C000002815D4FFE7FFE70020009068
:1013D00043F64000C4F20200016841F08051016010
:1013E000006800F0805000900098FFE701208DF821
:1013F0000700FFE747F20000C4F200000068C005E4
:10140000002822D4FFE747F20001C4F20001086877
:1014100040F480700860FFF703FA0390FFE747F29B
:101420000000C4F200000068C00500280CD4FFE7EB
:10143000FFF7F6F90399401A032804D3FFE70320C6
:101440008DF8170067E1EAE7FFE7FFE70498806897
:10145000012809D1FFE743F67001C4F202010868D0
:1014600040F0010008601FE00498806805280DD155
:10147000FFE743F67001C4F20201086840F004007F
:101480000860086840F0010008600CE043F6700155
:10149000C4F20201086820F001000860086820F02A
:1014A00004000860FFE7FFE7FFE704988068F8B1F1
:1014B000FFE7FFF7B5F90390FFE743F67000C4F2CA
:1014C0000200006800F002010020B0EB510F0ED1C5
:1014D000FFE7FFF7A5F90399401A41F289318842E5
:1014E00004D3FFE703208DF8170014E1E5E71EE0C1
:1014F000FFF796F90390FFE743F67000C4F202008D
:10150000006800F002010020B0EB510F0ED0FFE7A1
:10151000FFF786F90399401A41F28931884204D3D2
:10152000FFE703208DF81700F5E0E5E7FFE79DF8FA
:101530000700012809D1FFE743F64001C4F2020188
:10154000086820F080500860FFE7FFE70498806992
:10155000002800F0DC80FFE743F60800C4F2020038
:10156000006800F00C00082800F08580FFE7049870
:10157000806902285CD1FFE76021C4F24721002086
:101580000860FFF74DF90390FFE743F60000C4F24F
:101590000200006800F000710020B0EB516F0CD029
:1015A000FFE7FFF73DF90399401A032804D3FFE74B
:1015B00003208DF81700AEE0E7E70499C869D1F879
:1015C00020C04B6A8A6A40EA0C0040EA8310D203CA
:1015D0004FF6FF739A43A2F580321043C96A40EA7E
:1015E000016043F60401C4F2020108606021C4F204
:1015F000472101200860FFF713F90390FFE743F646
:101600000000C4F20200006800F000710020B0EB9E
:10161000516F0CD1FFE7FFF703F90399401A032834
:1016200004D3FFE703208DF8170074E0E7E721E01B
:101630006021C4F2472100200860FFF7F1F8039011
:10164000FFE743F60000C4F20200006800F00071FA
:101650000020B0EB516F0CD0FFE7FFF7E1F80399E2
:10166000401A032804D3FFE703208DF8170052E047
:10167000E7E7FFE74AE004988069012804D1FFE723
:1016800001208DF8170046E043F60400C4F2020082
:101690000068029004988069012831D0FFE7029821
:1016A00000F480000499C969884229D1FFE70298B3
:1016B00000F03F000499096A884221D1FFE70298AF
:1016C00047F6C07108400499496AB0EB811F17D1F1
:1016D000FFE7029800F440300499896AC9034FF685
:1016E000FF729143A1F58031884209D1FFE702984A
:1016F00000F070600499C96AB0EB016F04D0FFE795
:1017000001208DF8170006E0FFE7FFE7FFE7002064
:101710008DF81700FFE79DF8170006B080BD0000A8
:1017200080B582B00190019800F070F902B080BDE0
:1017300080B582B00090009820B9FFE701208DF8B5
:1017400007003EE00098806908B1FFE700E0FFE78E
:10175000009890F83D0040B9FFE70099002081F81B
:101760003C00009800F032F8FFE70099242081F84F
:101770003D0000980168C86820F40050C8600098D7
:1017800000F0D0F900980168086920F490400861E1
:1017900000980168486920F02A00486100980168B3
:1017A000C86840F40050C860009900200864009A9E
:1017B000202182F83D10009A82F83E108DF8070033
:1017C000FFE79DF8070002B080BD000080B588B03B
:1017D00007900020069005900490039002900798CF
:1017E000006841F20001C4F20101884234D1FFE7F0
:1017F000FFE70020019043F64400C4F202000168B4
:1018000041F010010160006800F0100001900198A3
:10181000FFE7FFE70020009043F63000C4F202002B
:10182000016841F001010160006800F001000090D2
:101830000098FFE74FF4C060029002200390002060
:10184000049003200590072006900020C4F20200B7
:1018500002A9FEF7F1FDFFE708B080BDFFE7FEE754
:1018600080B58CB000200B900A90099008900790EA
:10187000FFE70020069043F63000C4F20200016842
:1018800041F008010160006800F008000690069829
:10189000FFE7FFE70020059043F63000C4F20200A6
:1018A000016841F001010160006800F0010005904D
:1018B0000598FFE7FFE70020049043F63000C4F2EC
:1018C0000200016841F002010160006800F00200BE
:1018D00004900498FFE740F60040C4F20200039031
:1018E0004FF47041019100220292FEF781FF019AAC
:1018F0000299039807920122089209910A9107A977
:10190000FEF79AFD0CB080BD80B582B040F2700049
:10191000C2F20000019045F20041C4F200010160F2
:1019200048F2A061C0F20101416000218160C16004
:101930004FF48042026141618161C1610162FEF741
:1019400075FF18B1FFE7FEF76FFDFFE702B080BD3E
:1019500080B582B040F2C400C2F20000019041F2B2
:101960000001C4F2010101604FF4E1314160002146
:101970008160C16001610C2242618161C161FFF738
:10198000D7FE18B1FFE7FEF74FFDFFE702B080BDBD
:10199000FFE7FEE7FFE7FEE788B0079006910592B4
:1019A000079800F0070004900498C0F1070005288C
:1019B00003D3FFE70420019004E00498C0F107007E
:1019C0000190FFE70198039004980430062803D89B
:1019D000FFE70020009003E0049803380090FFE741
:1019E0000098029006980399012202FA01F1013948
:1019F0000840029B984005999A40013A11400843DB
:101A000008B07047704700007047000080B582B092
:101A1000009000980138B0F1807F03D3FFE70120E8
:101A2000019019E0009801384EF21401CEF2000145
:101A300008604FF0FF300F2100F01CF94EF2180142
:101A4000CEF20001002008604EF21002CEF2000239
:101A5000072111600190FFE7019802B080BD0000EE
:101A600080B5FFF77DF880BD80B594B008A830211F
:101A7000FEF772FC002007900690059004900390FA
:101A8000FFE70020029043F64000C4F20200016824
:101A900041F080510160006800F08050029002988F
:101AA000FFE7FFE70020019047F20000C4F20000CA
:101AB000016841F480410160006800F480400190B9
:101AC0000198FFE70220089001200B9010200C9055
:101AD00000200E9008A8FFF7C3FA18B1FFE7FEF741
:101AE000A3FCFFE70F2003900021049105914FF420
:101AF000C05006904FF4A050079003A8FFF7E0F8FD
:101B000018B1FFE7FEF790FCFFE714B080BD0000BE
:101B10004EF68851CEF20001086840F4700008606B
:101B20007047000080B586B0059005980068006990
:101B300020F44050059A1168D26810430861059955
:101B400088680B694A69C9691843104308430490BF
:101B500005980068C06849F20C61884304990843FD
:101B600005990968C86005980068406920F44070CC
:101B7000059A11689269104348610598006841F21E
:101B80000001C4F20101884209D0FFE7059800680E
:101B900041F20041C4F20101884204D1FFE7FFF79E
:101BA000D9F9039003E0FFF7C3F90390FFE7059825
:101BB000C069B0F5004F29D1FFE703981921A0FBB8
:101BC0000101059A1368029353685A00DB0FFEF770
:101BD0004BFB0299864648F21F53C5F2EB13AEFB4E
:101BE0000320420910014FF0640C02FB1CEC32226E
:101BF00002EBCC02A2FB0332F82303EA521300EB00
:101C00004300C2F342121044886026E00398192171
:101C1000A0FB0101059A1368019353689A009B0F7A
:101C2000FEF722FB0199844648F21F52C5F2EB12DF
:101C3000ACFB02304309642003FB10CC322000EBE4
:101C40000C10A0FB0202F02000EA521000EB03107F
:101C5000C2F3431210448860FFE706B080BD000065
:101C6000FFE7FEE74EF60C50CEF200000068C0F32E
:101C70000220704782B08DF8070000919DF907009F
:101C800000280AD4FFE7009800019DF907104EF2E2
:101C90000042CEF2000288540BE0009800019DF84B
:101CA000071001F00F014EF61452CEF200028854D4
:101CB000FFE702B07047000083B00290029800F086
:101CC000070000904EF60C51CEF20001086801901A
:101CD00001984FF6FF02104001900198009A40EAE7
:101CE00002200022C0F2FA521043019001980860CD
:101CF00003B0704780B582B000200190FEF73EFF30
:101D0000FFF7B2FEFFF7ACFDFFF722FEFFF7FCFD89
:101D100040F60040C4F202004FF470410122FEF789
:101D200067FDFFE7FEE7F1EE100A4FF6FF71C0F224
:101D3000C03120EA010040F04070E1EE100A704727
:101D4000000000000000000001020304060708096B
:101D50000000000001020304781D000800000020BC
:101D600010000000C4010008881D000810000020B9
:101D700000070000E00100080024F400010000005A
:081D800010000000000000004B
:040000050800018965
:00000001FF
